:020000040800F2
:1000000028070020890100089101000893010008D9
:100010009501000897010008990100080000000000
:100020000000000000000000000000009B0100082C
:100030009D010008000000009F010008A1010008C8
:10004000A3010008A3010008A3010008A301000800
:10005000A3010008A3010008A3010008A3010008F0
:10006000A3010008A3010008A3010008A3010008E0
:10007000A3010008A3010008A3010008A3010008D0
:10008000A3010008A3010008A3010008A3010008C0
:10009000A3010008A3010008A3010008A3010008B0
:1000A000A3010008A3010008A3010008A3010008A0
:1000B000A3010008A3010008A3010008A301000890
:1000C000A3010008A3010008A3010008A301000880
:1000D000A3010008C9070008A3010008A301000844
:1000E000A3010008A3010008A301000800F002F822
:1000F00000F03AF80AA090E8000C82448344AAF188
:100100000107DA4501D100F02FF8AFF2090EBAE885
:100110000F0013F0010F18BFFB1A43F0010318473B
:10012000940B0000B40B0000103A24BF78C878C1CB
:10013000FAD8520724BF30C830C144BF04680C60ED
:10014000704700000023002400250026103A28BF35
:1001500078C1FBD8520728BF30C148BF0B60704739
:100160001FB51FBD10B510BD00F0D1F81146FFF747
:10017000F7FF00F03FFC00F0EFF803B4FFF7F2FFE9
:1001800003BC00F0F7F80000094880470948004721
:10019000FEE7FEE7FEE7FEE7FEE7FEE7FEE7FEE737
:1001A000FEE7FEE704480549054A064B7047000094
:1001B00071070008ED000008280100202807002032
:1001C000280300202803002040EA010310B59B0704
:1001D0000FD1042A0DD310C808C9121F9C42F8D0B1
:1001E00020BA19BA884201D9012010BD4FF0FF3062
:1001F00010BD1AB1D30703D0521C07E0002010BD78
:1002000010F8013B11F8014B1B1B07D110F8013B03
:1002100011F8014B1B1B01D1921EF1D1184610BDE4
:1002200010B5044610F0030F08BF11F0030F40F0A3
:1002300015804FF0013E121FC0F20E8051F8043BB2
:10024000A3EB0E0C2CEA030C1CEACE1C08BF40F8F2
:10025000043BF0D0A1F1040102F10402521E08DBBC
:1002600011F8013B00F8013B002BF7D1114600F0DB
:1002700005F8204610BD7047704770474FF00002E8
:100280000429C0F0128010F0030C00F01B80CCF1A8
:10029000040CBCF1020F18BF00F8012BA8BF20F816
:1002A000022BA1EB0C0100F00DB85FEAC17C24BF6A
:1002B00000F8012B00F8012B48BF00F8012B704714
:1002C0004FF0000200B5134694469646203922BFEF
:1002D000A0E80C50A0E80C50B1F12001BFF4F7AF3A
:1002E000090728BFA0E80C5048BF0CC05DF804EB1C
:1002F000890028BF40F8042B08BF704748BF20F88A
:10030000022B11F0804F18BF00F8012B7047754683
:1003100000F02CF8AE4605006946534620F0070071
:10032000854618B020B5FFF73DFFBDE820404FF0EF
:1003300000064FF000074FF000084FF0000BAC46EE
:10034000ACE8C009ACE8C009ACE8C009ACE8C00939
:1003500021F007018D46704710B50446AFF30080C9
:100360002046BDE81040FFF708BF00000048704776
:100370000800002001491820ABBEFEE7260002005D
:10038000704700002DE9F041CA7802F00F0CD30647
:1003900044BF8B784CEA030C09880B0621D0056812
:1003A00000234FF001084FF00F0E002608E000BFB9
:1003B000282A08BF47610136082E03F104030FD035
:1003C00008FA06F70F42F6D00EFA03F425EA040401
:1003D0000CFA03F5482A45EA0405E9D10761EAE782
:1003E0000560B1F5807F38BFBDE8F0814468002327
:1003F0004FF4807E4FF00F08002607E0282A08BF40
:1004000047610136082E03F1040310D00EFA06F7F7
:1004100007EA0105BD42F4D108FA03F5AC430CFA32
:1004200003F5482A44EA0504E8D10761E9E7446096
:10043000BDE8F08110B5C17800294EF20011CEF26E
:1004400000011AD04EF60C52CEF2000212680723B9
:1004500023EA12220F23C2F1040C23FA02F243789A
:10046000847890F800E003FA0CF322401A4312015A
:1004700001EB0E0383F8002300E0803100780123B4
:1004800000F01F0203FA02F2C0F3421041F82020EC
:1004900010BD0000002941F21801C4F202010A68EF
:1004A0000CBF22EA000010430860704741F20000D0
:1004B000C4F202000168002241F0010101604168BC
:1004C000CFF6FF021140416001684FF6FF72CFF690
:1004D000F66211400160016821F4802101604168E9
:1004E00021F4FE0141604FF41F018160704700005C
:1004F00010B541F20404C4F20204226802F00C02B6
:10050000082A41F20022C0F27A021CD12368D4F8F2
:1005100000C0C3F3834E5FEACC330EF1020C06D465
:1005200040F60012C0F23D020CFB02F20BE0236821
:100530009B0302D40CFB02F205E040F60012C0F26D
:100540003D020CFB02F20260226840F6A243C2F3B5
:100550000312C0F600039A5C0168D1404160226832
:10056000C2F302229A5C21FA02F282602268C2F38C
:10057000C2229A5C40F69E43D140C1602268C0F618
:100580000003C2F381329A5CB1FBF2F1016110BD4C
:100590000121B1EB501F41F20001C4F2020104D06D
:1005A0004209022A14BF24312031096800F01F00DB
:1005B00021FA00F000F001007047000041F2040051
:1005C000C4F20200006800F00C00704741F2040120
:1005D000C4F202010A6822F0F0021043086070477A
:1005E00041F20001C4F202010A68B0F5803F22F432
:1005F00080320A600A6822F480220A6005D0B0F5D1
:10060000802F18BF70474FF4A0200A68104308607D
:100610007047000041F20401C4F202010A6822F4AA
:10062000E06210430860704741F20401C4F2020125
:100630000A6822F4605242EAC00008607047000075
:100640006021C4F2422108607047000041F20402B8
:10065000C4F202021368084323F47C1318431060A9
:100660007047000041F20401C4F202010A6822F05E
:10067000030210430860704780B582B000200190EB
:100680003120FFF785FF019901F1010101910199E5
:1006900010B9B1F5A06FF3D13120FFF779FF002831
:1006A00018BF012002B080BD80B500F001F880BD08
:1006B00082B041F204000021C4F2020001910091D5
:1006C00050F8041C41F4803140F8041C50F8041C1C
:1006D00001F400310091019901310191009919B99A
:1006E0000199B1F5A06FF1D150F8041C890354BFF2
:1006F0000021012100910099012936D142F2000127
:10070000C4F202010A6842F010020A600A6822F08C
:1007100003020A600A6842F002020A60016801608E
:1007200001680160016841F480610160016821F4A1
:100730007C110160016841F4E811016050F8041C6B
:1007400041F0807140F8041C50F8041C8901FBD56D
:10075000016821F003010160016841F002010160BC
:10076000016801F00C010829FAD102B070470000BD
:1007700080B541F20000C4F202000168002241F09D
:10078000010101604168CFF6FF021140416001683C
:100790004FF6FF72CFF6F66211400160016821F456
:1007A00080210160416821F4FE0141604FF41F0186
:1007B0008160FFF779FF4EF60850CEF200004FF04F
:1007C0000061016080BD0000F0B581B043F6000417
:1007D000C4F201042088800636D540F2BC05C2F27E
:1007E0000005286830B140F2B800C2F200000121D3
:1007F000016029E0204600F0F5F840F2C801C2F29D
:100800000001087040F2C000C2F2000009780268DE
:1008100040F26803C2F200039954016840F20002FA
:1008200001310160C2F20002002111600268502A09
:10083000A8BF016040F2C401C2F20001006809686B
:10084000884204BF01202860208800063ED544F677
:100850000000C4F2000040F2277100F039F840F2C5
:100860002415C2F200052868012829D140F21C167F
:10087000C2F20006306840F2C901C2F20001085C11
:1008800040F22017C2F20007387030680130306043
:100890003978204600F0AAF82046402100F02AF8D6
:1008A0000028F9D038780D2810D100203060286059
:1008B000204640F22771002200F022F801B0F0BD7E
:1008C000204640F22771002200F01AF801B0F0BD76
:1008D000090A012202FA01F1C943018070470000B0
:1008E0008289002942F4005308BF22F40053838117
:1008F000704700000088084018BF012070470000C2
:10090000C1F3421301F01F0C1421022B08BF102168
:10091000012B4FF0010308BF0C21002A03FA0CF24F
:1009200043580CBF23EA02021A43425070470000AA
:1009300070B586B00446008A0D46C98820F4405040
:1009400008432082A0894EF6F3110840A9882A891D
:100950006B89084310431843A081A08AA98920F419
:100960004070084301AEA0823046FFF7C1FD43F658
:10097000000106F10800C4F201018C4208BF06F133
:100980000C0000681922B4F90C1050432A680223A5
:10099000002948BF012302FA03F1B0FBF1F048F24D
:1009A0001F51C5F2EB11A0FB01235A096FF063033D
:1009B00002FB0300B4F90C300426002B48BF0326C9
:1009C00000FA06F000F13200A0FB01014FF00F0029
:1009D00048BF072000EA511040EA0210208106B00B
:1009E00070BD000080886FF35F2070476FF35F2158
:1009F0008180704700F0E2F800F00EF940F2241B0D
:100A000040F2B80940F2000740F21C1A40F2C40854
:100A100040F2680C40F2201440F2C90340F2BC05D9
:100A2000C2F2000BC2F20009C2F20007C2F2000AD1
:100A3000C2F20008C2F2000CC2F20004C2F20003CB
:100A4000C2F2000515E000BF0120CBF80000002035
:100A5000CAF8000043F60000C4F2010040F227711A
:100A60000122FFF74DFFA44640F220143346C2F2A4
:100A7000000440F2C002C2F2000200BFDBF8000036
:100A80000028FBD1D9F80000D8BB38680028F5D180
:100A9000DAF8000050284CDAD8F800001CF8000002
:100AA0002070D8F800000130C8F800002078DAF88B
:100AB00000105854DAF800000130CAF80000002095
:100AC0002860D8F800005028A4BF0020C8F8000013
:100AD0001068D8F80010884204BF012038602078E0
:100AE0000D28CBD1184625A1062264461E46FFF7E5
:100AF0006BFB0028A8D1304622A15022FFF790FBC3
:100B0000A2E740F2C900C2F2000016A15022FFF78E
:100B100087FB0120CBF800000020CAF8000043F654
:100B20000000C4F2010040F227710122FFF7E8FE45
:100B3000FEE740F2C900C2F200001AA15022FFF7FE
:100B40006FFB0120CBF800000020CAF8000043F63C
:100B50000000C4F2010040F227710122FFF7D0FE2D
:100B6000FEE700BF496E7075742042756666657257
:100B70002069732066756C6C0D0A000068656C6CEA
:100B80006F0D000048656C6C6F21204920616D205D
:100B9000776F726B696E672070726F7065726C79B7
:100BA000210D0A004F757470757420627566666554
:100BB000722069732066756C6C0D0A0080B5FFF7B2
:100BC00075FC4FF48030FFF70BFDFFF755FD012852
:100BD00020D10020FFF7FAFC0020FFF725FD4FF49D
:100BE0008060FFF717FD4FF480304FF4E011FFF7FE
:100BF0002DFD0120FFF724FD3920FFF7C9FC002857
:100C0000FAD00220FFF72EFDFFF7D8FC0828FBD111
:100C100080BD00BFFEE7000070B586B044F204005E
:100C20000121FFF737FC2520C0F20010059005A830
:100C3000FFF700FC43F6000440F20020C4F2010478
:100C4000C1F60300A4F5405504AE04902846314691
:100C5000FFF798FB4FF48060ADF8100004208DF88A
:100C6000130028463146FFF78DFB4FF4E13000902A
:100C700000204FF4402101900291ADF80C0069462C
:100C80002046FFF755FE20460121FFF729FE2046AA
:100C900040F225510122FFF733FE06B070BD020479
:100CA0000608000000000102030401020304060715
:100CB00008090000D40C0008000000200400000017
:100CC00028010008D80C00080800002020070000B8
:080CD0004401000801000000CE
:040000050800018965
:00000001FF
